:100CB7005B005D003A00202020202000434E2000EA
:060CC700540020002D0086
:060D7A000114000115FF49
:080B86007FC87E007D007C00A9
:100B8E008F248E238D228C21E47B19FAF9F812031F
:100B9E00878F248E238D228C21782174FF1203D807
:070BAE00EC4D4E4F70F322E5
:1000030020B02F120B8630B0FD0515E515D39406ED
:10001300401D7515FFE4F514AF13AD19AB171208A6
:100023001FAF11AD09AB0D850F24120A06800375AE
:100033001401E514700302023730B10302012612E2
:100043000B8630B1FDE515B407004003020126908D
:100053000059F828287302006E02008502009C02F2
:1000630000B20200C80200E8020108E5132401FF00
:10007300E43512FE7C007D181202B28C128D13023D
:100083000126E5192401FFE43518FE7C007D3C12AE
:1000930002B28C188D19020126E5172401FFE435FD
:1000A30016FE7C007D3C1202B28C168D178074AE56
:1000B30010AF117C007D071202B2ED2401F511E4AB
:1000C3003CF510805EC3E509941FE5089400500BCE
:1000D300E5092401FFE43508FE80047E007F018EDC
:1000E300088F09803EC3E50D940CE50C9400500B7A
:1000F300E50D2401FFE4350CFE80047E007F018EB4
:100103000C8F0D801EC3E50F9463E50E9400500B16
:10011300E50F2401FFE4350EFE80047E007F008E90
:100123000E8F0F30B203020237120B8630B2FDE599
:1001330015B407004003020237900143F8282873DF
:100143000201580201780201980201B80201D802A3
:1001530001F8020218D3E5139400E5129400400C51
:10016300E51324FFFFE51234FFFE80047E007F17B2
:100173008E128F1322D3E5199400E5189400400CD6
:10018300E51924FFFFE51834FFFE80047E007F3B62
:100193008E188F1922D3E5179400E5169400400CAE
:1001A300E51724FFFFE51634FFFE80047E007F3B46
:1001B3008E168F1722D3E5119401E5109400400C9D
:1001C300E51124FFFFE51034FFFE80047E007F0766
:1001D3008E108F1122D3E5099401E5089400400C99
:1001E300E50924FFFFE50834FFFE80047E007F1F3E
:1001F3008E088F0922D3E50D9401E50C9400400C81
:10020300E50D24FFFFE50C34FFFE80047E007F0C28
:100213008E0C8F0D22D3E50F9400E50E9400400C55
:10022300E50F24FFFFE50E34FFFE80047E007F63AD
:050233008E0E8F0F226A
:100CCD008F21E521C3940A50057F30120BF9AF2116
:050CDD007E0002074645
:1008CF00E4FD7F04120C44E515700DE51460097BFF
:1008DF00FF7A0C79B7120C01AF13120CCDE515701E
:1008EF000DE51460097BFF7A0C79B9120C017BFFBF
:1008FF007A0C79BB120C01E515B4010DE5146009F2
:10090F007BFF7A0C79B7120C01AF19120CCDE515DC
:10091F00B4010DE51460097BFF7A0C79B9120C0153
:10092F007BFF7A0C79BB120C01E515B4020DE514AF
:10093F0060097BFF7A0C79B7120C01AF17120CCD3F
:10094F00C3E5179464E516940050057F20120BF948
:10095F00E515B4020DE51460097BFF7A0C79B91225
:0B096F000C017BFF7A0C79BD020C012B
:100529007D017F02120C44E515B4030DE514600941
:100539007BFF7A0C79B7120C01E511640145107B38
:10054900FF70067A0C79C380147A0C79C7120C01F2
:10055900AF11AE101207467BFF7A0C79C9120C0154
:10056900E515B4030DE51460097BFF7A0C79B9121E
:100579000C01E515B4040DE51460097BFF7A0C79CB
:10058900B7120C01C3E509940AE50894005006E482
:10059900FFFE120746AF09AE08120746E515B40477
:1005A9000DE51460097BFF7A0C79B9120C017BFF08
:1005B9007A0C79CB120C01E515B4050DE514600927
:1005C9007BFF7A0C79B7120C01C3E50D940AE50C8F
:1005D90094005006E4FFFE120746AF0DAE0C120759
:1005E90046E515B4050DE51460097BFF7A0C79B968
:1005F900120C017BFF7A0C79CB120C01E515B406BC
:1006090009E51460057F5B120BF9AF0F120CCD7F62
:1006190020120BF9E515B40608E51460047F5D8026
:0F062900027F20120BF97BFF7A0C79BD020C01C6
:100A6F00120D2B120B11120003E514703CF52475B7
:100A7F002500752618F527752800752916FB7A00AD
:100A8F0079121203F675240075250075260875274F
:100A9F000075280075290C752A00752B00752C0E12
:100AAF007B007A0079101206381208CF12052980C0
:010ABF00B581
:100CF500E4FDFCC3ED9FEC9E50070DBD00010C808B
:010D0500F2FB
:010D060022CA
:100C2400E4FDFCC3ED9FEC9E5015E4FBFA0BBB0006
:0F0C3400010AEB647D4A70F50DBD00010C80E4F0
:010C4300228E
:030CE200120C836E
:100CE500D2A27F037E00120CF5C2A27F32020CF560
:100C8300EF1392A3EFC3131392A4EF1313543F1361
:0C0C930092A5EF131313541F1392A62216
:100D0700AB07EBC4540FFF120CE2AF03120C8302C4
:020D17000CE5E9
:0C0D4A007F01120D077F0A7E00020CF5ED
:100B1100E4FF120C837F147E00120C24C2A0C2A138
:100B21007F03120CE27F057E00120C24120CE57F7C
:100B3100647E00120CF5120CE57F02120C83120C7C
:100B4100E57F28120D077F0C120D077F06120D0796
:050B51007F01020D0709
:100C4400ED7006EF2480FA8004EF24C0FA7FE87E7A
:100C540003120CF5AF02120D077F327E00020CF571
:100BDD002430FF120BF9AE22AF237C007D0A1203E5
:0C0BED00077C007D0A120307ED2430FF96
:080BF900D2A0120D07C2A022D8
:100C01008B218A228923AB21AA22A923120238FF30
:100C11006010120BF974012523F523E43522F52226
:030C210080E4224A
:100746008E228F23D3E5239409E52264809480507A
:1007560004EF020818D3E5239409E5226480948007
:10076600402DE5239464E522648094805021AE22D6
:10077600AF237C007D0A120307EF2430FF120BF92A
:10078600AE22AF237C007D0A120307ED020818D3C0
:10079600E5239463E522648094804029E52394E868
:1007A600E52264809483501DAE22AF237C007D64D5
:1007B600120307EF120BDDAE22AF237C007D0A1277
:1007C6000307ED804DD3E52394E7E5226480948307
:1007D6004046E5239410E522648094A7503AAE2261
:1007E600AF237C037DE8120307EF2430FF120BF9D9
:1007F600AE22AF237C007D641203077C007D0A12C3
:100806000307ED120BDDAE22AF237C007D0A120337
:0908160007ED2430FF120BF9225A
:070D6200D291120D69D2903D
:010D69002267
:050D8700D290D2912280
:0D0D3D00D290120D69C291120D69C2902270
:0B0D5600120D62A2919201C290A20156
:010D6100226F
:070C6400AD07120D3D7FD02A
:100C6B00E4FEEF339291D290120D69C290EF25E022
:080C7B00FF0EBE08ED020D564C
:080D6A00C291120D64C2902237
:060D8100120D62C2902277
:080BB500E48FF0120368D20185
:100BBD00E4FFFE120D62EF25E0FF309103430701C4
:0F0BCD00C2900EBE08ED300103020D6A120D81B9
:010BDC0022F6
:080D7200C291120D64D291221E
:100D1900AC07120C66AF04120C6BAF05120C6B0218
:020D29000D7249
:100C9F00120C64AF05120C6B120D3D7FD1120C6B51
:080CAF00C201120BBD020D721F
:100D2B00120D87E4FF120C9FAD0753057FE4FF0202
:020D3B000D1990
:0603F6008B218A228923FD
:1003FC00120C66E4FF120C6B120D3D7FD1120C6BCC
:10040C00D201120BBDAB077A00D201120BBD752CB9
:10041C00008F2DC201120BBD752A008F2B120D728D
:10042C0053037FEAC4F854F0C868FEEBC4540F4879
:10043C00FF7C007D0A1202A0EB540F2FFFEC3EABA9
:10044C0027AA28A9298FF0120368532D7F752C0039
:10045C00E52CC4F854F0C868FEE52DC4540F48FFD1
:10046C001202A0E52D540F2FFFEC3EAB24AA25A9B8
:10047C00268FF0120368E52B30E64AAB2EAA2FA983
:10048C0030E475F00C120368E52B30E504D20080E3
:10049C0002C200532B1F752A00E52AC4F854F0C879
:1004AC0068FEE52BC4540F48FF7C007D0A1202A0A5
:1004BC00E52B540F2FFFEC3EAB21AA22A9238FF082
:1004CC001203688055AB2EAA2FA930E475F01812D0
:1004DC000368532B3F752A00E52AC4F854F0C8680A
:1004EC00FEE52BC4540F48FF7C007D0A1202A0E5E8
:1004FC002B540F2FFFEC3EAB21AA22A9238FF01215
:10050C000368AB21AA22A92312033DC3940CE5F086
:0C051C0094005004C2008002D200A20033
:0105280022B0
:10081F008E218F228C238D247C007D0AAF03AE02A4
:10082F001202B2EFC4F8540FC868F582EEC454F048
:10083F0048F5837C007D0AAF03AE021202B2EC458D
:10084F0083FAED4582FBAE23AF247C007D0A1202B2
:10085F00B2EFC4F8540FC868F582EEC454F048F5EF
:10086F0083AE23AF247C007D0A1202B2EC4583F5E0
:10087F0023ED4582F524AE21AF227C007D0A1202C2
:10088F00B2EFC4F8540FC868F582EEC454F048F5BF
:10089F0083AE21AF227C007D0A1202B2EC4583F5B4
:1008AF0021ED4582F522120C66E4FF120C6BAF03AB
:1008BF00120C6BAF24120C6BAF22120C6B020D7269
:100638008B218A228923120C667F03120C6B120D00
:100648003D7FD1120C6BD201120BBDAB21AA22A99E
:1006580023120BB5AB24AA25A926120BB5AB27AAE2
:1006680028A929E48FF0120368C201120BBDAB2A36
:10067800AA2BA92CE48FF0120368120D72AB21AAE1
:1006880022A92312033D5407FFE48FF0120368AB3D
:1006980024AA25A92612033D543FFFE48FF0120334
:1006A80068AB24AA25A92612033DFBAAF0EAC4F8E0
:1006B80054F0C868FEEBC4540F48FF7C007D0A1252
:1006C80002A0EB540F2FFFEC3EAB24AA258FF012AB
:1006D8000368AB27AA28A92912033D541FFFE48FFA
:1006E800F0120368AB27AA28A92912033DFBAAF038
:1006F800EAC4F854F0C868FEEBC4540F48FF12026D
:10070800A0EB540F2FFFEC3EAB27AA288FF0120363
:1007180068AB2AAA2BA92C12033DFBAAF0EAC4F85D
:1007280054F0C868FEEBC4540F48FF1202A0EB5403
:0E0738000F2FFFEC3EAB2AAA2B8FF0020368B6
:100A0600AC07ED75F00A84C454F0FFED75F00A8466
:100A1600E5F04FFDEB75F00A84C454F0FFEB75F07A
:100A26000A84E5F04FFBE52475F00A84C454F0FF10
:100A3600E52475F00A84E5F04FF524ECD3940140E3
:100A460005EC940840047C018000120C667F0312BA
:100A56000C6BAF04120C6BAF05120C6BAF03120CD0
:090A66006BAF24120C6B020D723F
:080B56008B1B8A1C891DAD07F1
:100B5E00E4FC120C66AF05120C6BECC3951E50151F
:100B6E00AB1BAA1CA91D8C82758300120251FF12A9
:080B7E000C6B0C80E5020D7206
:060AC0008B328A338934F9
:100AC600120C64AF05120C6B120D3D7FD1120C6B2C
:100AD600E4FDE53514FFEDC39F5017D201120BBD9F
:100AE600AB32AA33A9348D82758300EF12027E0DD4
:100AF60080E0C201120BBDAB32AA33A934AE058E1B
:0B0B060082758300EF12027E020D7268
:0300000002097A78
:0C097A00787FE4F6D8FD7581350209C1D4
:10023800BB010689828A83E0225002E722BBFE02C4
:09024800E32289828A83E49322F7
:10025100BB010CE58229F582E5833AF583E0225062
:1002610006E92582F8E622BBFE06E92582F8E222AC
:0D027100E58229F582E5833AF583E49322C6
:10027E00F8BB010DE58229F582E5833AF583E8F0B6
:10028E00225006E92582C8F622BBFE05E92582C862
:02029E00F2224A
:1002A000EF8DF0A4A8F0CF8CF0A428CE8DF0A42E72
:0202B000FE222C
:1002B200BC000BBE0029EF8DF084FFADF022E4CC30
:1002C200F875F008EF2FFFEE33FEEC33FCEE9DECF9
:1002D200984005FCEE9DFE0FD5F0E9E4CEFD22ED3F
:1002E200F8F5F0EE8420D21CFEADF075F008EF2F89
:1002F200FFED33FD4007985006D5F0F222C398FD7A
:050302000FD5F0EA2216
:10030700C2D5EC30E709B2D5E4C39DFDE49CFCEE11
:1003170030E715B2D5E4C39FFFE49EFE1202B2C3D5
:10032700E49DFDE49CFC80031202B230D507C3E4D0
:060337009FFFE49EFE2280
:10033D00BB010A89828A83E0F5F0A3E0225006878B
:10034D00F009E71922BBFE07E3F5F009E31922894D
:0B035D00828A83E493F5F07401932280
:10036800BB010A89828A83F0E5F0A3F0225006F7E0
:0F03780009A7F01922BBFE06F3E5F009F31922DD
:10038700E88FF0A4CC8BF0A42CFCE98EF0A42CFC15
:100397008AF0EDA42CFCEA8EF0A4CDA8F08BF0A493
:1003A7002DCC3825F0FDE98FF0A42CCD35F0FCEBF2
:1003B7008EF0A4FEA9F0EB8FF0A4CFC5F02ECD39B7
:0F03C700FEE43CFCEAA42DCE35F0FDE43CFC2224
:1003D6007401FF3395E0FEFDFC080808E6CF2FF612
:1003E60018E6CE3EF618E6CD3DF618E6CC3CF622EB
:10098600020A6FE493A3F8E493A34003F68001F20E
:1009960008DFF48029E493A3F85407240CC8C33372
:1009A600C4540F4420C8834004F456800146F6DF41
:1009B600E4800B0102040810204080900D7AE47E4A
:1009C600019360BCA3FF543F30E509541FFEE49336
:1009D600A360010ECF54C025E060A840B8E493A3FD
:1009E600FAE493A3F8E493A3C8C582C8CAC583CA28
:1009F600F0A3C8C582C8CAC583CADFE9DEE780BEE0
:010D80000072
:00000001FF
